:020000040800F2
:10000000000003200D2D0008352A00083B2A0008B7
:10001000412A0008472A00084D2A00080000000075
:10002000000000000000000000000000532A00084B
:10003000612A0008000000006F2A00087D2A0008DD
:100040005D2D00085D2D00085D2D00085D2D000868
:100050005D2D00085D2D00085D2D00085D2D000858
:100060005D2D00085D2D00085D2D00085D2D000848
:100070005D2D00085D2D00085D2D00085D2D000838
:100080005D2D00085D2D00085D2D00085D2D000828
:100090005D2D00085D2D00085D2D00085D2D000818
:1000A0005D2D00085D2D00085D2D00085D2D000808
:1000B0005D2D0008892A00085D2D00085D2D0008CF
:1000C0005D2D00085D2D00085D2D00085D2D0008E8
:1000D0005D2D00085D2D00085D2D00085D2D0008D8
:1000E0005D2D00085D2D00085D2D00085D2D0008C8
:1000F0005D2D00085D2D00085D2D00085D2D0008B8
:100100005D2D00085D2D00085D2D00085D2D0008A7
:100110005D2D00085D2D00085D2D00085D2D000897
:100120005D2D00085D2D00085D2D00085D2D000887
:100130005D2D00085D2D00085D2D00085D2D000877
:100140005D2D00085D2D00085D2D00085D2D000867
:100150005D2D00085D2D00085D2D00085D2D000857
:100160005D2D00085D2D00085D2D00085D2D000847
:100170005D2D00085D2D00085D2D000800000000C9
:100180005D2D00085D2D00085D2D00085D2D000827
:100190005D2D00085D2D00085D2D00085D2D000817
:0C01A0005D2D00085D2D00085D2D00089D
:1001B00010B5054C237833B9044B13B10448AFF3A1
:1001C00000800123237010BD78050020000000008E
:1001D000C8A4000808B5034B1BB103490348AFF39B
:1001E000008008BD000000007C050020C8A40008B5
:1001F000034613F8012B002AFBD1181A0138704767
:1002000001F0FF01102A2BDB10F0070F08D010F8C7
:10021000013B013A8B422DD010F0070F42B3F6D1CB
:10022000F0B441EA012141EA014122F007047FF0E4
:1002300000070023F0E80256083C85EA010586EA3B
:10024000010685FA47F5A3FA87F586FA47F6A5FA77
:1002500087F68EB9EED1F0BC01F0FF0102F0070283
:1002600032B110F8013B013A83EA010313B1F8D12E
:100270000020704701387047002D06BF354603380F
:10028000073815F0010F07D1013015F4807F02BF48
:10029000013015F4C03F0130F0BC0138704700BF99
:1002A00053B94AB9002908BF00281CBF4FF0FF31DD
:1002B0004FF0FF3000F070B9ADF1080C6DE904CEDD
:1002C00000F006F8DDF804E0DDE9022304B0704731
:1002D0002DE9F047089E0D4604460F46002B4AD1F3
:1002E0008A42944665D9B2FA82F343B102FA03FC1A
:1002F000C3F120029F4020FA02F217439C404FEACC
:100300001C4E1FFA8CF5B7FBFEF1220C0EFB117789
:1003100042EA074201FB05F090420AD91CEB0202B7
:1003200001F1FF3780F01C81904240F219810239BF
:100330006244121AA4B2B2FBFEF00EFB102244EA91
:10034000024400FB05F5A5420AD91CEB040400F1A8
:10035000FF3280F00781A54240F2048164440238F4
:1003600040EA0140641B00211EB1DC400023C6E9C5
:100370000043BDE8F0878B4208D9002E00F0ED80E5
:100380000021C6E900050846BDE8F087B3FA83F10D
:10039000002949D1AB4202D3824200F2F880841A8C
:1003A00065EB030201201746002EE2D0C6E90047A4
:1003B000DFE702B9FFDEB2FA82F3002B40F0908053
:1003C0008A1A4FEA1C471FFA8CFE0121B2FBF7F58F
:1003D00007FB1520220C42EA00420EFB05F090427A
:1003E00008D91CEB020205F1FF3802D2904200F25C
:1003F000CB804546121AA4B2B2FBF7F007FB1022DD
:1004000044EA02440EFB00FEA64508D91CEB040496
:1004100000F1FF3202D2A64500F2BB801046A4EBE9
:100420000E0440EA05409FE7C1F120078B4022FA05
:1004300007FC4CEA030C05FA01F420FA07F3FD402F
:100440004FEA1C492343B5FBF9F81FFA8CFE09FB60
:1004500018551C0C44EA054408FB0EF5A54202FAA7
:1004600001F200FA01F00BD91CEB040408F1FF3A89
:1004700080F08880A54240F28580A8F1020864449B
:10048000641B9DB2B4FBF9F309FB134445EA044431
:1004900003FB0EFEA64508D91CEB040403F1FF354F
:1004A0006CD2A6456AD9023B644443EA0843A3FBE5
:1004B0000295A4EB0E04AC42C846AE4656D353D0C8
:1004C00056B1B0EB080264EB0E0404FA07F7CA4019
:1004D000CC401743C6E9007418460021BDE8F087F8
:1004E000C3F1200102FA03FC20FA01F225FA01F11E
:1004F0009D402A434FEA1C471FFA8CFEB1FBF7F0E0
:1005000007FB1015110C41EA054100FB0EF58D4269
:1005100004FA03F408D91CEB010100F1FF382FD2D3
:100520008D422DD902386144491B92B2B1FBF7F5D7
:1005300007FB151142EA014205FB0EF1914208D971
:100540001CEB020205F1FF3816D2914214D9023D8C
:100550006244521A45EA004138E73146304608E71E
:100560003946E6E61046FBE64845A9D2B9EB020853
:1005700065EB0C0E013BA3E74546EAE72B4694E703
:100580004046D1E7D0467BE7023D624432E7084669
:100590000AE76444023842E7704700BF80B584B080
:1005A00000AFF860B9607A60FB70FB78094A52F8D6
:1005B0002330184603F014F8FB689BB2BA6891B276
:1005C0007A6892B2184603F0AFF900BF1037BD4603
:1005D00080BD00BFF000002080B584B000AFF8609F
:1005E000B9607A603B603B68002B06DA254B264AEF
:1005F00040F22311254808F045FF7B68002B06DAFE
:10060000234B214A4FF49271204808F03BFFBA680F
:100610003B681344F02B03DDBB68C3F1F0033B6080
:10062000FA687B681344B3F5A07F03DDFB68C3F56C
:10063000A0737B60BB68002B05DA3A68BB68D31AED
:100640003B600023BB60FB68002B05DA7A68FB681F
:10065000D31A7B600023FB603B7E0E4A52F82330A6
:10066000184602F0BDFFBB6898B2FB6899B23B68C0
:100670009AB27B689BB203F099F900BF1037BD4670
:1006800080BD00BFE0A4000840A50008E8A4000861
:10069000FCA40008F000002080B487B000AFF86030
:1006A000B9607A6000237B611DE0F968134BA3FBFE
:1006B0000123DA0813469B0013445B00CA1AD3B225
:1006C0003033FB747B697A68D31A013BBA681344F0
:1006D000FA7C1A70FB68094AA2FB0323DB08FB6063
:1006E0007B6901337B617B697A689A42DDD800BF00
:1006F00000BF1C37BD465DF8047B7047CDCCCCCC29
:1007000080B582B000AF78607B68164A82FB031226
:100710009210DB17D31ADBB23033DAB2124BDA7332
:100720007A68104B83FB02139910D317C91A0B4632
:100730009B000B445B00D11ACBB23033DAB20A4BC8
:100740001A744FF0FF3002F04BFF4FF07F4002F081
:100750005FFF0549002003F0CFF800BF0837BD4612
:1007600080BD00BF676666660000002080B500AFF0
:100770000A4B1B680A4904221846FFF78DFF4FF009
:10078000FF3002F02DFF4FF07F4002F041FF05499E
:10079000012003F0B1F800BF80BD00BFA409002014
:1007A000270000201800002080B582B000AF7860DC
:1007B0007B681B68104904221846FFF76DFF7B68B1
:1007C00004331B680D4904221846FFF765FF4FF0FC
:1007D000FF3002F005FF4FF07F4002F019FF08499B
:1007E000022003F089F80749032003F085F800BFD1
:1007F0000837BD4680BD00BF4100002059000020E1
:10080000300000204800002080B582B000AF4FF0DB
:10081000FF3002F0E5FE4FF07F4002F0F9FE0023CA
:100820007B6010E07B689BB2073398B27A6813460E
:100830005B001344DB00084A1344194603F05CF8DC
:100840007B6801337B607B68052BEBDD00BF00BF5D
:100850000837BD4680BD00BF6000002080B586B06F
:1008600002AFF860B9601346FB71FB681801BB6802
:100870001901FB790833DBB2009310231022FFF734
:10088000ABFEFB681B01D81CBB681B01D91CFB79A4
:1008900000930A230A22FFF79FFE00BF1037BD46D0
:1008A00080BD80B584B002AF786039607B68180184
:1008B0003B6819010F23009310231022FFF78CFED1
:1008C00000BF0837BD4680BD80B586B000AF7860F8
:1008D00000237B6145E000233B613AE07B685A6A74
:1008E0007B691344132B2EDC7B681A6A3B69134423
:1008F000092B28DC7B685A6A7B691344002B22DBB6
:100900007B681A6A3B691344002B1CDB7A687B699D
:100910009B001A443B6913441B78FB60FB68002B67
:1009200013D0154AFB6813441B78FB727B685A6A24
:100930007B69D0187B681A6A3B691344FA7A1946B6
:10094000FFF78CFF02E000BF00E000BF3B6901330E
:100950003B617B689A6A3B699A42BFD87B690133E5
:100960007B617B689A6A7B699A42B4D800BF00BFFA
:100970001837BD4680BD00BF3001002080B586B06D
:1009800000AF786000237B613FE000233B6134E0EF
:100990007B685A6A7B691344132B28DC7B681A6ACC
:1009A0003B691344092B22DC7B685A6A7B69134438
:1009B000002B1CDB7B681A6A3B691344002B16DB97
:1009C0007A687B699B001A443B6913441B78FB607F
:1009D000FB68002B0DD07B685A6A7B69D0187B6856
:1009E0001A6A3B6913441946FFF75BFF02E000BF38
:1009F00000E000BF3B6901333B617B689A6A3B6959
:100A00009A42C5D87B6901337B617B689A6A7B69AE
:100A10009A42BAD800BF00BF1837BD4680BD00005B
:100A200080B586B000AF786000237B6129E00023A9
:100A30003B6120E017497A6913469B0013445B0031
:100A4000CA183B6913441B78FB60FB68002B04D178
:100A500039697869FFF725FF0AE00F4AFB681344FC
:100A60001B78FB72FB7A1A4639697869FFF7F6FE44
:100A70003B6901333B613B69092BDBDD7B6901335A
:100A80007B617B697A689A42D1D800BF00BF183772
:100A9000BD4680BD640800203001002080B584B0D0
:100AA00000AF00F09DFD0246484B83FB0213134448
:100AB0009910D317C91A0B46DB005B1AD31A7B6057
:100AC00000F08EFD0246414B83FB02131344991044
:100AD000D317C91A0B46DB005B1AD11A4B1C3B60BB
:100AE0003B4B1B683B497A6851F822203A492C203D
:100AF00000FB03F30B4428331A60354B1B68364A5E
:100B00002C2101FB03F3134428331B6823F001035A
:100B1000C3F10A035A082E4B1B6810462E4A2C219B
:100B200001FB03F3134420331860294B1B682A4A46
:100B30002C2101FB03F3134428331B685A42244B36
:100B40001B681046244A2C2101FB03F31344243371
:100B50001860224B1A68224B1B6813441F4A13600B
:100B60000023FB602AE00023BB6021E01D497B6875
:100B70009A00FB6813449B00CA18BB681344197899
:100B80003B68DBB2124A126811FB03F3D8B2124978
:100B900013469B0013445B001344FA6813449B0004
:100BA000CA18BB68134402461A70BB680133BB60A5
:100BB000BB68032BDADDFB680133FB60FB68032BAA
:100BC000D1DD00BF00BF1037BD4680BD93244992E0
:100BD00084090020A80100202C0900208809002099
:100BE000C40100203801002080B483B000AF00238E
:100BF0007B607BE000233B6069E0464B1A68464916
:100C000013469B0013445B0013447A6813449B0013
:100C1000CA183B6813441B78002B55D03D4B1B680A
:100C20003D4A2C2101FB03F3134420331A683B682F
:100C30001344092B46DC374B1B68374A2C2101FB38
:100C400003F3134420331A683B681344002B39DB49
:100C5000304B1B68304A2C2101FB03F3134424332F
:100C60001A687B681344132B2CDC2A4B1B682A4A16
:100C70002C2101FB03F3134424331A687B681344CB
:100C8000002B21DB234B1B68234A2C2101FB03F3A0
:100C9000134424331A687B681A441E4B1B681E4990
:100CA0002C2000FB03F30B44203319683B681944E4
:100CB0001A4813469B0013445B0003440B441B7803
:100CC000002B01D001231FE03B6801333B60114B37
:100CD0001B68114A2C2101FB03F3134428331A68C3
:100CE0003B689A4289D87B6801337B60094B1B685B
:100CF000094A2C2101FB03F3134428331A687B684B
:100D00009A423FF677AF002318460C37BD465DF890
:100D1000047B7047840900202C090020640800200F
:100D200090B484B000AF0023FB6032E00023BB60CE
:100D300020E0474B1A68464B1968464813469B000B
:100D400013445B001344FA6813449B00C218BB6849
:100D500013441C783F48FB689A002C2301FB03F3E3
:100D60001344C218BB681344103322461A70BB6880
:100D70000133BB60364B1B68364A2C2101FB03F361
:100D8000134428331A68BB689A42D2D8FB680133EF
:100D9000FB602F4B1B682F4A2C2101FB03F31344EC
:100DA00028331A68FB689A42C0D800237B603DE074
:100DB00000233B602BE0264B1B68254A126825491F
:100DC0002C2000FB02F20A44283211683A688A1A81
:100DD000511E1F4A12681F4889002C2404FB03F38C
:100DE0000B44C1187B680B4410331878194913461B
:100DF0009B0013445B0013447A6813449B00CA1899
:100E00003B68134402461A703B6801333B60104B49
:100E10001B68104A2C2101FB03F3134428331A6882
:100E20003B689A42C7D87B6801337B60084B1B68DC
:100E3000084A2C2101FB03F3134428331A687B680A
:100E40009A42B5D800BF00BF1037BD4690BC70476E
:100E5000840900202C090020B0B485B000AF002325
:100E6000FB6032E00023BB6020E0474B1A68464B32
:100E70001968464813469B0013445B001344FA6804
:100E800013449B00C218BB6813441C783F48FB689E
:100E90009A002C2301FB03F31344C218BB681344CC
:100EA000103322461A70BB680133BB60364B1B6897
:100EB000364A2C2101FB03F3134428331A68BB681C
:100EC0009A42D2D8FB680133FB602F4B1B682F4A34
:100ED0002C2101FB03F3134428331A68FB689A4260
:100EE000C0D800237B603DE000233B602BE0264B15
:100EF0001968254B1B68254A2C2000FB03F313447B
:100F000028331A687B68D31A013B1F4A12681F4CAA
:100F1000386880002C2505FB01F1014421440B4475
:100F200010331878194913469B0013445B0013448F
:100F30007A6813449B00CA183B68134402461A702F
:100F40003B6801333B60104B1B68104A2C2101FBAE
:100F500003F3134428331A683B689A42C7D87B6866
:100F600001337B60084B1B68084A2C2101FB03F30B
:100F7000134428331A687B689A42B5D800BF00BF73
:100F80001437BD46B0BC7047840900202C090020EE
:100F900090B482B000AF00237B6032E000233B605E
:100FA00020E0214B1B68204A12682048796889009C
:100FB0002C2404FB03F30B44C1183B680B4410338F
:100FC00018781A4913469B0013445B0013447A684F
:100FD00013449B00CA183B68134402461A703B68CE
:100FE00001333B60104B1B68104A2C2101FB03F3BB
:100FF000134428331A683B689A42D2D87B6801337D
:101000007B60094B1B68094A2C2101FB03F3134445
:1010100028331A687B689A42C0D800BF00BF0837DF
:10102000BD4690BC704700BF840900202C090020F9
:1010300080B588B000AF0023FB610023BB6158E09E
:1010400001237B6100233B6111E03649BA691346F5
:101050009B0013445B00CA183B6913441B78002BA8
:1010600002D100237B6105E03B6901333B613B69B1
:10107000092BEADD7B69002B38D0FB690133FB616A
:10108000BB69FB6021E00023BB6018E0FB685A1ECF
:10109000244913469B0013445B00CA18BB681344E1
:1010A00018782049FA6813469B0013445B00CA185D
:1010B000BB68134402461A70BB680133BB60BB684F
:1010C000092BE3DDFB68013BFB60FB68002BDADCEE
:1010D00000237B6007E0134A7B68134400221A70E8
:1010E0007B6801337B607B68092BF4DDBB690133CE
:1010F000BB61BB69132BA3DDFB69002B0AD0FB6925
:1011000003FB03F31A46084B1B681344064A13609B
:10111000FFF72CFB1420FFF783FC00BF2037BD46F0
:1011200080BD00BF64080020A409002090B58BB0EA
:1011300000AF7860A24B1B68013303F001032C223F
:1011400002FB03F39F4A98189D4B1B682C2202FB5D
:1011500003F39C4A13442C22194608F0B0FB0023E9
:101160007B62994B1A687B68D31A23EAE373964A29
:101170001360964B1A687B68D31A23EAE373934A89
:101180001360934B1A687B68D31A23EAE373904A7F
:101190001360904B1A687B68D31A23EAE3738D4A75
:1011A00013608D4B1B78002B36D0894B1B68002BAE
:1011B00032D1834B1B6883492C2203FB02F20A4481
:1011C0002032126801327F492C2000FB03F30B44CC
:1011D00020331A6001233B62FFF706FD0346002B14
:1011E00013D0774B1B6877492C2203FB02F20A4489
:1011F00020321268013A73492C2000FB03F30B44A0
:1012000020331A6000233B6202E0714BE1221A6036
:101210007A6A3B6A13437B62704B1B78002B36D093
:101220006C4B1B68002B32D1654B1B6865492C2227
:1012300003FB02F20A4420321268013A61492C2071
:1012400000FB03F30B4420331A600123FB61FFF71B
:10125000CBFC0346002B13D0594B1B6859492C2259
:1012600003FB02F20A4420321268013255492C2055
:1012700000FB03F30B4420331A600023FB6102E000
:10128000544BE1221A607A6AFB6913437B62544B28
:101290001B78002B19D04C4B1B68002B15D1FFF786
:1012A0003FFD0123BB61FFF79FFC0346002B04D0E9
:1012B000FFF76EFE0023BB6103E0434B4FF49672D1
:1012C0001A607A6ABB6913437B62464B1B78002B1A
:1012D00019D03E4B1B68002B15D1FFF7BDFD012334
:1012E0007B61FFF781FC0346002B04D0FFF750FE23
:1012F00000237B6103E0354B4FF496721A607A6AE3
:101300007B6913437B62384B1B78002B07D07B68CB
:10131000DA00364B1B681344344A13601AE1334B2E
:101320001A687B681344314A136013E12F4B1A6823
:101330002F4B1B68D31A2D4A1360214B1B68214980
:101340002C2203FB02F20A442432126801321D49A6
:101350002C2000FB03F30B4424331A6001233B6170
:10136000FFF742FC0346002B00F0F080144B1B6893
:1013700014492C2203FB02F20A4424321268013A77
:1013800010492C2000FB03F30B4424331A600C4B50
:101390001B680C4A2C2101FB03F3134424331B6804
:1013A000002B05DC134B01221A70FFF72DFAF2E037
:1013B00000233B610023FB6098E00023BB6086E0D4
:1013C000840900202C0900208C09002090090020AD
:1013D00094090020980900209C0900209D09002004
:1013E0009F090020A00900209E09002088090020F4
:1013F000C4010020A1090020684B1A6868491346FF
:101400009B0013445B001344FA6813449B00CA1802
:10141000BB6813441B78002B55D0604B1B68604A97
:101420002C2101FB03F3134424331A68FB681A448C
:101430005A4B1B685A492C2000FB03F30B44203302
:101440001968BB681944574813469B0013445B0056
:1014500003440B441B78002B06D0534B534A40F2F5
:101460004E21534808F00EF84C4B1A684B4B1B6842
:101470004B492C2000FB03F30B4424331968FB6811
:101480001944464B1B6846482C2404FB03F30344D1
:1014900020331868BB681844414C13469B00134422
:1014A0005B001344FA6813449B00E218BB681344C2
:1014B0001C783C4A0B469B000B445B0013440344DE
:1014C00022461A7000E000BFBB680133BB60334B9B
:1014D0001B68334A2C2101FB03F3134428331A6899
:1014E000BB689A4288D8FB680133FB602B4B1B68B2
:1014F0002B4A2C2101FB03F3134428331A68FB68A1
:101500009A423FF65AAFFFF793FDFFF7C7FA234B16
:101510001B68013303F001032C2202FB03F3204A72
:1015200098181E4B1B682C2202FB03F31C4A134421
:101530002C22194608F0C3F9184B1B682C2202FB19
:1015400003F3174A13441846FFF7BEF97A6A3B695A
:1015500013437B62174B1A68174B1B689A42BFF6FE
:10156000E5AE7B6A002B16D00C4B1B68013303F0F1
:1015700001032C2202FB03F3094A13441846FFF728
:10158000FDF9064B1B682C2202FB03F3044A1344AB
:101590001846FFF799F92C37BD4690BD8409002005
:1015A0002C0900206408002004A5000854A50008A8
:1015B000E8A4000888090020C401002080B582B09A
:1015C00000AF3B1D1946054805F03CFE7B681846F8
:1015D00007F076FF00BF0837BD4680BD60070020DA
:1015E00080B500AF07F09AFF0346184680BD80B56E
:1015F00000AF02F053FE0346184680BD80B582B0AE
:1016000000AF78607B68184602F054FE00BF0837D0
:10161000BD4680BD90B59BB002AF02F0D9FD00F091
:10162000E7F900F059FD00F0FDFA00F007FD00F0C9
:101630002BFB00F069FB00F053FC00F04BFA00F0CC
:1016400015FC00F027FC00F099FA00F07FFCAE4892
:1016500006F008FE0021AC4806F0CEFEAA4B1B683F
:101660000122DA62A84B0122DA6001F0D3FE4FF0CA
:101670005041002001F050FF4FF07F4001F0C8FFC3
:101680004FF0FF3001F0ACFFA04801F0DBFF4FF05E
:101690007F4002F007F80023FB650023BB650023B1
:1016A0007B6500233B65FFF789FFFFF7F7F94FF4F0
:1016B000FA70FFF7A3FF0020FFF722F8FFF756F8B4
:1016C00007234FF4A0720021A020FEF767FF00233C
:1016D000FB6425E0FB6C5B1001229A40FB6C03F07D
:1016E00001035340FB60FB6803F14400FB6803F116
:1016F000A801FB68C3F17C035A00FB68C3F1210316
:101700005C00FB6C03F00103002B01D1072300E018
:101710000F2300932346FEF75FFFFB6C0133FB644E
:10172000FB6C092BD6DDFFF762FFB865BB6D7B65EF
:101730000023BB64FFF75BFF3864754802F022FEAC
:10174000744802F01FFE4FF0FF31714802F01FFF96
:101750004FF0FF316F4802F01AFF6D4802F0A2FF10
:10176000024613465B0013447B606A4802F09AFF0E
:10177000024613465B001344BB60654802F0D4FE8A
:10178000644802F0D1FE7B68022B0AD97B681D2BCE
:101790000BD87A68BB686049A1FB03131B099A4206
:1017A00003D25E4B01221A7002E05C4B00221A70D9
:1017B0007B68B3F5FA7F03D9594B01221A7002E016
:1017C000574B00221A70BB68B3F5FA7F03D9554B0B
:1017D00001221A7002E0534B00221A704FF400618C
:1017E000514804F0AFF90346012B11D13A6CBB6CA0
:1017F000D31AB3F5FA7F0BDB4C4B1B78002B0CBFD5
:1018000001230023DBB21A46484B1A703B6CBB64C1
:101810004FF40051444804F095F90346012B03D1DD
:10182000434B01221A7002E0414B00221A704FF420
:1018300080513D4804F086F90346012B03D13D4B0E
:1018400001221A7002E03B4B00221A70FFF7CFFE14
:10185000F863FA6BBB6DD31ABB63FB6B364A82FB32
:1018600003129211DB17D21ABB6D334981FB0301BE
:101870008911DB17CB1A9A4240F388802F4B1B68E3
:10188000023B2E4A1360FB6B7B637A6B7B6DD31A32
:101890003B63FB6D4FF47A7202FB03F303F5FA72BC
:1018A0003B6B92FBF3F3FB62F86AFEF729FF3B1DEB
:1018B0001846FEF779FF0420FFF7B2F8204B1B68AB
:1018C0002C2202FB03F31F4A13441846FEF7FCFFC9
:1018D00007234FF4A0720021A020FEF75FFE002333
:1018E000FB657B6B7B65184B1B78002B4ED0174B31
:1018F000BB62B86AFEF77CFC0346023B7B627B6AF4
:10190000013B7B643DE000BFE807002008050020A4
:1019100094050020DC0500201F85EB519D09002067
:101920009C0900209E090020000C0240C8010020F4
:10193000A00900209F090020D34D6210C40100209F
:10194000840900202C090020A10900207800002033
:101950007A6C7B6A1344013B7A6A93FBF2F2796AF0
:1019600001FB02F29B1A01331A46BB6A1A447B6CD4
:1019700001331946BB6A0B4412781A707B6C013B29
:101980007B647B6C002BE3DAFEF73EFFFB6D0133DB
:10199000FB65FB6BBB65144B1B78002B02D1B86B4E
:1019A000FFF7C4FBFFF723FE3862104BFB613A6A76
:1019B0003B6CD31A1B04BB61FA693B6D1A44BB69CB
:1019C000D31A7B617B69002B0BDD7B691B143B61A8
:1019D0003869FFF713FE3B691B047A69D31A3B652C
:1019E000A8E600233B65A5E6A10900205555210086
:1019F00080B594B000AF07F12003302200211846D3
:101A000007F0E1FE07F10C0300221A605A609A60A9
:101A1000DA601A610023BB602C4B1B6C2B4A43F02D
:101A200080531364294B1B6C03F08053BB60BB686D
:101A300000237B60264B1B68254A43F44043136018
:101A4000234B1B6803F440437B607B6809233B62A4
:101A50004FF480337B6201237B630223BB634FF42B
:101A60008003FB6310233B64B4237B640223BB64C9
:101A70000823FB6407F12003184604F075FD0346B4
:101A8000002B01D000F0D0FB04F01EFD0346002B1C
:101A900001D000F0C9FB0F23FB6002233B61002350
:101AA0007B614FF4A053BB614FF48053FB6107F19E
:101AB0000C030521184604F0CFFF0346002B01D08C
:101AC00000F0B2FB00BF5037BD4680BD0038024079
:101AD0000070004080B584B000AF3B4600221A6021
:101AE0005A609A60DA60224B224A1A60204B4FF407
:101AF00080325A601E4B4FF080729A601C4B00225D
:101B00001A611B4B00221A76194B002283F8202001
:101B1000174B0022DA62164B174A9A62144B0022C6
:101B2000DA60134B0122DA61114B002283F8302076
:101B30000F4B01225A610E4802F0E0FB0346002BD6
:101B400001D000F071FB01233B6001237B60012386
:101B5000BB603B461946064802F0B2FD0346002B27
:101B600001D000F061FB00BF1037BD4680BD00BF53
:101B700094050020002001400100000F80B584B0D2
:101B800000AF3B4600221A605A609A60DA60224B2E
:101B9000224A1A60204B4FF480325A601E4B4FF09D
:101BA00080729A601C4B00221A611B4B00221A762D
:101BB000194B002283F82020174B0022DA62164BC3
:101BC000174A9A62144B0022DA60134B0122DA6141
:101BD000114B002283F830200F4B01225A610E482E
:101BE00002F08CFB0346002B01D000F01DFB02230A
:101BF0003B6001237B600123BB603B4619460648DE
:101C000002F05EFD0346002B01D000F00DFB00BF8B
:101C10001037BD4680BD00BFDC050020002101401B
:101C20000100000F80B500AF154B164A1A60144B27
:101C300000225A60124B02229A60114B0022DA6095
:101C40000F4B00229A620E4B0222DA620C4B0022EA
:101C50001A630B4B00225A63094803F02FFA03461C
:101C6000002B01D000F0E0FA0121054803F084FBCD
:101C70000346002B01D000F0D7FA00BF80BD00BFA3
:101C80002406002000B0024080B500AF1B4B1C4A68
:101C90001A601A4B1B4A5A60184B00229A60174B65
:101CA0000022DA60154B4FF480421A61134B002278
:101CB0005A61124B00229A61104B0022DA610F4BDD
:101CC00000221A620D4803F06FFF0346002B01D07B
:101CD00000F0AAFA0021094804F0AAF80346002BF4
:101CE00001D000F0A1FA0021044804F0DDF8034619
:101CF000002B01D000F098FA00BF80BD64060020E0
:101D0000005C0040A086010080B59AB000AF07F1EA
:101D1000340334220021184607F055FD3B46342297
:101D20000021184607F04FFD4E4B4F4A1A604D4BAD
:101D300000225A604B4B00229A604A4B0022DA6024
:101D4000484B00221A61474B07225A61454B032238
:101D50009A61444B0E22DA61424B05221A62414BD2
:101D6000FE225A623F4B40F245129A623D4B4FF4BD
:101D70008272DA623B4B40F247121A63394B0022FF
:101D800083F83420374B002283F83520354B00226E
:101D900083F83620334804F0C7F80346002B01D0FF
:101DA00000F042FA00237B630023BB630023FB6344
:101DB00000233B6400237B640023BB640023FB649B
:101DC0004FF480633B6505237B650023BB650023DF
:101DD000FB6500233B66002387F86430002387F807
:101DE0006530002387F8663007F134030022194676
:101DF0001C4804F069F90346002B01D000F014FAE6
:101E000000233B6000237B600023BB600023FB605A
:101E100000233B6100237B610023BB614FF480639F
:101E2000FB6105233B6200237B620023BB6200232E
:101E3000FB62002387F83030002387F8313000231D
:101E400087F832303B4601221946064804F03CF937
:101E50000346002B01D000F0E7F900BF6837BD460C
:101E600080BD00BFB80600200068014080B500AF0B
:101E7000064B074A1A60054805F0BAF90346002BDD
:101E800001D000F0D1F900BF80BD00BF6007002085
:101E90000008065080B500AF0F4B104A1A600E4B79
:101EA00000225A600C4B7F229A600B4BFF22DA60B3
:101EB000094B00221A61084B00225A61064B00228E
:101EC0009A61054805F014FA0346002B01D000F092
:101ED000ABF900BF80BD00BF7007002000280040A4
:101EE00080B500AF174B184A1A60164B4FF4827238
:101EF0005A60144B00229A60124B0022DA60114B98
:101F000000221A610F4B00225A610E4B4FF40072EF
:101F10009A610C4B0022DA610A4B00221A62094BCB
:101F200000225A62074B00229A62064B0A22DA62AA
:101F3000044805F068FB0346002B01D000F074F95B
:101F400000BF80BD900700200050014080B58EB0DA
:101F500000AF07F1280300221A605A609A60DA6025
:101F600007F1200300221A605A603B1D00221A600C
:101F70005A609A60DA601A615A619A612D4B2E4A52
:101F80001A602C4B4FF40B625A602A4B00229A6065
:101F9000284B40F2E732DA60264B00221A61254BCB
:101FA00000229A61234806F00DF90346002B01D068
:101FB00000F03AF94FF48053BB6207F12803194649
:101FC0001C4806F0ABFC0346002B01D000F02CF9B6
:101FD000184806F0B7F90346002B01D000F024F9A9
:101FE00000233B6200237B6207F12003194611485E
:101FF00007F09EF80346002B01D000F015F960238E
:102000007B6040F2F313BB600223FB6000237B6123
:102010003B1D00221946074806F0BEFB0346002B75
:1020200001D000F001F9034800F02EFC00BF383762
:10203000BD4680BDE80700200004004080B588B0A0
:1020400000AF3B1D00221A605A609A60DA601A6184
:102050005A619A611E4B1F4A1A601D4B01225A6039
:102060001B4B00229A601A4B0422DA60184B102294
:102070001A61174B40225A61154B80229A61144B0A
:102080000022DA61124B00221A62114B00225A62BE
:102090000F4B00229A6210237B601023BB60102339
:1020A000FB6010233B6110237B611023BB61102375
:1020B000FB613B1D1946064805F014FA0346002B48
:1020C00001D000F0B1F800BF2037BD4680BD00BF91
:1020D00030080020400100A080B58EB000AF07F1AD
:1020E000240300221A605A609A60DA601A610023A1
:1020F0003B624A4B1B6B494A43F020031363474B37
:102100001B6B03F020033B623B6A0023FB61434BE4
:102110001B6B424A43F080031363404B1B6B03F07D
:102120008003FB61FB690023BB613C4B1B6B3B4A9B
:1021300043F004031363394B1B6B03F00403BB61CF
:10214000BB6900237B61354B1B6B344A43F00103B1
:102150001363324B1B6B03F001037B617B6900232C
:102160003B612E4B1B6B2D4A43F0020313632B4B39
:102170001B6B03F002033B613B690023FB60274BB1
:102180001B6B264A43F040031363244B1B6B03F085
:102190004003FB60FB680023BB60204B1B6B1F4AA6
:1021A00043F0100313631D4B1B6B03F01003BB6064
:1021B000BB6800237B60194B1B6B184A43F0080374
:1021C0001363164B1B6B03F008037B607B680022D4
:1021D0004FF4C041124803F0CDFC4FF460537B62D2
:1021E0000023BB620023FB6207F1240319460D485C
:1021F00003F0F0F94FF4C0437B620123BB6200237C
:10220000FB6200233B6307F124031946044803F0F3
:10221000E1F900BF3837BD4680BD00BF003802403D
:1022200000180240000C024080B400AF72B600BF3C
:10223000FEE7000080B483B000AF00237B60104B4A
:102240005B6C0F4A43F4804353640D4B5B6C03F4A7
:1022500080437B607B6800233B60094B1B6C084A12
:1022600043F080531364064B1B6C03F080533B60B8
:102270003B6800BF0C37BD465DF8047B704700BF6C
:102280000038024080B58CB000AF786007F11C03C5
:1022900000221A605A609A60DA601A617B681B68D3
:1022A0002E4A934228D10023BB612D4B5B6C2C4AF4
:1022B00043F4807353642A4B5B6C03F48073BB61FB
:1022C000BB6900237B61264B1B6B254A43F001034E
:1022D0001363234B1B6B03F001037B617B690223B8
:1022E000FB6103233B6200237B6207F11C03194659
:1022F0001C4803F06FF92CE07B681B681A4A934274
:1023000027D100233B61164B5B6C154A43F40073E5
:102310005364134B5B6C03F400733B613B69002314
:10232000FB600F4B1B6B0E4A43F0010313630C4B16
:102330001B6B03F00103FB60FB680423FB610323B9
:102340003B6200237B6207F11C031946054803F03A
:1023500041F900BF3037BD4680BD00BF00200140BD
:1023600000380240000002400021014080B485B0E6
:1023700000AF78607B681B680B4A93420DD1002345
:10238000FB600A4B1B6B094A43F400031363074BC2
:102390001B6B03F40003FB60FB6800BF1437BD46F2
:1023A0005DF8047B704700BF00B002400038024077
:1023B00080B58AB000AF786007F1140300221A607C
:1023C0005A609A60DA601A617B681B68294A9342F6
:1023D0004BD100233B61284B1B6B274A43F004037E
:1023E0001363254B1B6B03F004033B613B69002324
:1023F000FB60214B1B6B204A43F0010313631E4B10
:102400001B6B03F00103FB60FB684FF400737B61FF
:102410001223BB610023FB6103233B6204237B6225
:1024200007F114031946154803F0D4F84FF48073EC
:102430007B611223BB610023FB6103233B62042306
:102440007B6207F1140319460D4803F0C3F800231B
:10245000BB60094B1B6C084A43F400031364064B32
:102460001B6C03F40003BB60BB6800BF2837BD468C
:1024700080BD00BF005C0040003802400008024000
:102480000000024080B59AB000AF786007F15403B5
:1024900000221A605A609A60DA601A6107F1240318
:1024A00030220021184607F08EF97B681B68814AAC
:1024B000934240F0FA8008237B6231237B6302233E
:1024C000FB630023BB6407F12403184604F0D0FC2F
:1024D0000346002B01D0FFF7A7FE00233B62764B9B
:1024E0005B6C754A43F080635364734B5B6C03F021
:1024F00080633B623B6A0023FB616F4B1B6B6E4A40
:1025000043F0200313636C4B1B6B03F02003FB6150
:10251000FB690023BB61684B1B6B674A43F00103F7
:102520001363654B1B6B03F00103BB61BB690023A5
:102530007B61614B1B6B604A43F0020313635E4B8C
:102540001B6B03F002037B617B6900233B615A4BE9
:102550001B6B594A43F040031363574B1B6B03F04B
:1025600040033B613B690023FB60534B1B6B524AAA
:1025700043F004031363504B1B6B03F00403FB6035
:10258000FB680023BB604C4B1B6B4B4A43F00803BA
:102590001363494B1B6B03F00803BB60BB684FF42C
:1025A00080637B650223BB650023FB6500233B66DC
:1025B0000E237B6607F154031946404803F00AF8DE
:1025C00041F658037B650223BB650023FB650023AE
:1025D0003B660E237B6607F154031946384802F028
:1025E000F9FF03237B650223BB650023FB65002302
:1025F0003B6609237B6607F154031946314802F014
:10260000E9FF4FF470637B650223BB650023FB6524
:1026100000233B660E237B6607F1540319462948C5
:1026200002F0D8FF4FF40C637B650223BB650023E7
:10263000FB6500233B660E237B6607F154031946B6
:10264000214802F0C7FF4FF498637B650223BB6506
:102650000023FB6500233B660E237B6607F15403D2
:1026600019461A4802F0B6FF48237B650223BB6572
:102670000023FB6500233B660E237B6607F15403B2
:102680001946134802F0A6FF4FF4A0537B650223BE
:10269000BB650023FB6500233B6609237B6607F1CE
:1026A00054031946084802F095FF00BF6837BD463D
:1026B00080BD00BF006801400038024000140240A5
:1026C00000000240000402400018024000080240DE
:1026D000000C024080B485B000AF78607B681B6856
:1026E0000B4A93420DD10023FB600A4B5B6B094AF6
:1026F00043F040035363074B5B6B03F04003FB6005
:10270000FB6800BF1437BD465DF8047B704700BF0F
:10271000000806500038024080B58EB000AF7860E7
:1027200007F1080330220021184607F04CF87B68B7
:102730001B680C4A934211D12023BB604FF40073F5
:102740003B6307F10803184604F092FB0346002B95
:1027500001D0FFF769FD044B01221A6000BF383732
:10276000BD4680BD002800403C0E474280B58AB07F
:1027700000AF786007F1140300221A605A609A6073
:10278000DA601A617B681B68194A93422CD10023D6
:102790003B61184B5B6C174A43F480135364154B31
:1027A0005B6C03F480133B613B690023FB60114BBE
:1027B0001B6B104A43F0200313630E4B1B6B03F09B
:1027C0002003FB60FB684FF460737B610223BB61F5
:1027D0000023FB6103233B6205237B6207F11403A3
:1027E0001946054802F0F6FE00BF2837BD4680BDF9
:1027F00000500140003802400014024080B582B011
:1028000000AF78607B681B68084A93420AD1084B86
:102810005B6C074A23F4801353644FF460710548DE
:1028200003F084F800BF0837BD4680BD005001406A
:10283000003802400014024080B584B000AF7860D8
:102840007B681B680E4A934215D10023FB600D4B39
:102850001B6C0C4A43F0020313640A4B1B6C03F01D
:102860000203FB60FB68002200211D2002F031FA08
:102870001D2002F04AFA00BF1037BD4680BD00BFE0
:10288000000400400038024080B588B000AF786096
:1028900007F10C0300221A605A609A60DA601A612C
:1028A0007B681B68124A93421DD10023BB60114B09
:1028B0001B6B104A43F0020313630E4B1B6B03F0B8
:1028C0000203BB60BB681023FB6002233B61002353
:1028D0007B610023BB610223FB6107F10C031946F6
:1028E000054802F077FE00BF2037BD4680BD00BF1F
:1028F00000040040003802400004024080B586B069
:1029000000AF3B1D00221A605A609A60DA601A61BB
:102910003B4B1B68002B6FD1394B01221A600023FF
:102920003B60384B9B6B374A43F001039363354B55
:102930009B6B03F001033B603B684FF63F037B60FA
:102940000223BB600023FB6003233B610C237B61FC
:102950003B1D19462C4802F03DFE01237B600223FB
:10296000BB600023FB6003233B610C237B613B1DA9
:102970001946264802F02EFE48F233137B600223EC
:10298000BB600023FB6003233B610C237B613B1D89
:1029900019461F4802F01EFE4FF680737B6002232B
:1029A000BB600023FB6003233B610C237B613B1D69
:1029B0001946184802F00EFE4CF203737B600223A6
:1029C000BB600023FB6003233B610C237B613B1D49
:1029D0001946114802F0FEFD60237B600223BB60B4
:1029E0000023FB6003233B610C237B613B1D1946E5
:1029F0000A4802F0EFFD00E000BF1837BD4680BD79
:102A0000A8090020003802400014024000080240DB
:102A10000018024000100240000C02400004024076
:102A200080B582B000AF7860FFF768FF00BF08375D
:102A3000BD4680BD80B400AFFEE780B400AFFEE7C6
:102A400080B400AFFEE780B400AFFEE780B400AF13
:102A5000FEE780B400AF00BFBD465DF8047B704761
:102A600080B400AF00BFBD465DF8047B704780B402
:102A700000AF00BFBD465DF8047B704780B500AF76
:102A800001F0F8FB00BF80BD80B582B000AF2B4BDA
:102A90001B68013B294A1360284B1B68002B46D159
:102AA000274B1B68274A32F813300C2B05D8234BD1
:102AB0000A221A603123FB8017E0214B1B68214A50
:102AC00032F81330204AA2FB0323DB089BB21A46DC
:102AD0001A4B1A601A4B1B681A4A32F813301A46FE
:102AE00043F2BB2393FBF2F3FB80184B1B78002BC4
:102AF00003D0FB885B08BB8001E00023BB80104B48
:102B00001B6801330E4A13600D4B1A68104BA3FB70
:102B100002131B0A4FF4BC7101FB03F3D31A084ADA
:102B200013600C4AFB88D3620A4ABB8853630A4885
:102B300005F02AFD00BF0837BD4680BDBC0400205B
:102B4000AC090020CC0100204FECC44EC80100208D
:102B50005D414CAE00040040E807002080B400AFA7
:102B600001231846BD465DF8047B704780B582B0EE
:102B700000AF7860396006F075FE034616221A60D1
:102B80004FF0FF3318460837BD4680BD80B582B090
:102B900000AF78604FF0FF317868FFF7E7FFFEE79E
:102BA00080B586B000AFF860B9607A6000237B61C1
:102BB0000AE0AFF300800146BB685A1CBA60CAB293
:102BC0001A707B6901337B617A697B689A42F0DB1A
:102BD0007B6818461837BD4680BD80B586B000AF0B
:102BE000F860B9607A6000237B6109E0BB685A1C19
:102BF000BA601B781846AFF300807B6901337B61B4
:102C00007A697B689A42F1DB7B6818461837BD46C3
:102C100080BD80B483B000AF78604FF0FF331846BA
:102C20000C37BD465DF8047B704780B483B000AFBD
:102C3000786039603B684FF400525A6000231846B0
:102C40000C37BD465DF8047B704780B483B000AF9D
:102C50007860012318460C37BD465DF8047B704749
:102C600080B485B000AFF860B9607A600023184680
:102C70001437BD465DF8047B7047000080B586B010
:102C800000AF7860144A154BD31A7B617B693B61B6
:102C9000134B1B68002B02D1114B124A1A60104BC8
:102CA0001A687B6813443A699A4207D206F0DAFD43
:102CB00003460C221A604FF0FF3309E0084B1B68F3
:102CC000FB60074B1A687B681344054A1360FB6876
:102CD00018461837BD4680BD0000032000040000E0
:102CE000B0090020580D002080B400AF064BD3F887
:102CF0008830054A43F47003C2F8883000BFBD46EF
:102D00005DF8047B704700BF00ED00E0DFF834D0D1
:102D10000D480E490E4A002302E0D458C450043333
:102D2000C4188C42F9D30B4A0B4C002301E013600A
:102D30000432A242FBD3FFF7D7FF06F099FDFEF75E
:102D400069FC704700000320000000207805002087
:102D500014CD000878050020580D0020FEE780B54E
:102D600000AF00F05DFACA2000F05DF9C32000F06A
:102D700067F9082000F064F9502000F061F9CF20D5
:102D800000F051F9002000F05BF9C12000F058F983
:102D9000302000F055F9ED2000F045F9642000F0F6
:102DA0004FF9032000F04CF9122000F049F981207E
:102DB00000F046F9E82000F036F9852000F040F9EF
:102DC000002000F03DF9782000F03AF9CB2000F027
:102DD0002AF9392000F034F92C2000F031F90020D4
:102DE00000F02EF9342000F02BF9022000F028F931
:102DF000F72000F018F9202000F022F9EA2000F076
:102E000012F9002000F01CF9002000F019F9B1209F
:102E100000F009F9002000F013F91B2000F010F970
:102E2000B62000F000F90A2000F00AF9A22000F014
:102E300007F9C02000F0F7F8102000F001F9C120D8
:102E400000F0F1F8102000F0FBF8C52000F0EBF8DE
:102E5000452000F0F5F8152000F0F2F8C72000F04A
:102E6000E2F8902000F0ECF8362000F0DCF8C82002
:102E700000F0E6F8F22000F0D6F8002000F0E0F8CC
:102E8000B02000F0D0F8C22000F0DAF8B62000F050
:102E9000CAF80A2000F0D4F8A72000F0D1F82720C3
:102EA00000F0CEF8042000F0CBF82A2000F0BBF8A8
:102EB000002000F0C5F8002000F0C2F8002000F06B
:102EC000BFF8EF2000F0BCF82B2000F0ACF8002099
:102ED00000F0B6F8002000F0B3F8012000F0B0F8E0
:102EE0003F2000F0ADF8F62000F09DF8012000F042
:102EF000A7F8002000F0A4F8062000F0A1F82C208C
:102F000000F091F8C82000F079FA262000F08BF844
:102F1000012000F095F8E02000F085F80F2000F087
:102F20008FF8292000F08CF8242000F089F80C207C
:102F300000F086F80E2000F083F8092000F080F8F9
:102F40004E2000F07DF8782000F07AF83C2000F068
:102F500077F8092000F074F8132000F071F80520CC
:102F600000F06EF8172000F06BF8112000F068F800
:102F7000002000F065F8E12000F055F8002000F096
:102F80005FF8162000F05CF81B2000F059F80420D0
:102F900000F056F8112000F053F8072000F050F828
:102FA000312000F04DF8332000F04AF8422000F0C4
:102FB00047F8052000F044F80C2000F041F80A2002
:102FC00000F03EF8282000F03BF82F2000F038F801
:102FD0000F2000F035F8112000F025F8C82000F08F
:102FE0000DFA292000F01FF82C2000F01CF800BF7B
:102FF00080BD80B500AF00F013F90321D32000F0AD
:103000002CF803469BB2184680BD80B500AF29203E
:1030100000F009F800BF80BD80B500AF282000F0A7
:1030200002F800BF80BD80B582B000AF0346FB71DF
:10303000FB79184600F08EF900BF0837BD4680BD09
:1030400080B582B000AF0346FB80FB88184600F0D5
:103050005FF900BF0837BD4680BD80B582B000AFC4
:1030600003460A46FB8013467B717A79FB8811463A
:10307000184600F091F9034618460837BD4680BD52
:1030800080B400AFF0231846BD465DF8047B70475E
:1030900080B400AF4FF4A0731846BD465DF8047BC2
:1030A0007047000080B500AF194804F04CFF03469C
:1030B000002B2BD1164B174A1A60154B1822DA61D8
:1030C000134B00229A60124B00225A61104B0022CF
:1030D0001A610F4B00229A620D4B0722DA620C4BE9
:1030E0000022DA600A4B00221A62094B4FF4007288
:1030F0009A61074B00225A62054B4FF482725A6064
:10310000034800F053F8024804F07DFA00BF80BD88
:10311000B40900200050014080B584B000AF0346E0
:10312000FB710023FB73FB799AB2094B1B6807F113
:103130000801084804F054FC0346FB73FB7B002B9A
:1031400001D000F027F8BB6818461037BD4680BD97
:10315000FC040020B409002080B584B000AF034611
:10316000FB800023FB73094B1B68B91D0122084833
:1031700004F0FAFA0346FB73FB7B002B01D000F04E
:1031800009F800BF1037BD4680BD00BFFC04002019
:10319000B409002080B500AF034804F0BDFAFFF782
:1031A00081FF00BF80BD00BFB409002080B58AB098
:1031B00000AF786000233B61174B5B6C164A43F409
:1031C00080135364144B5B6C03F480133B613B69C5
:1031D0000023FB60104B1B6B0F4A43F0200313636B
:1031E0000D4B1B6B03F02003FB60FB684FF4607317
:1031F0007B610223BB610223FB6101233B62052348
:103200007B6207F114031946044802F0E3F900BF9A
:103210002837BD4680BD00BF003802400014024080
:1032200080B588B000AF364B1B78002B64D1344B8F
:1032300001221A700023BB60324B1B6B314A43F0F2
:10324000080313632F4B1B6B03F00803BB60BB68C1
:103250004FF40053FB6001233B6100237B61022399
:10326000BB6107F10C031946274802F0B3F90023AC
:103270007B60244B1B6B234A43F008031363214BF1
:103280001B6B03F008037B607B684FF48053FB608B
:1032900001233B6100237B610223BB6107F10C0327
:1032A0001946194802F096F900233B60154B1B6B39
:1032B000144A43F004031363124B1B6B03F0040323
:1032C0003B603B680423FB6001233B6100237B617F
:1032D0000223BB6107F10C0319460C4802F07AF98E
:1032E00000220421094802F045FC0122042107487C
:1032F00002F040FCFFF7D6FE00BF2037BD4680BD80
:103300000C0A002000380240000C02400008024075
:1033100080B582B000AF0346FB8001224FF400511C
:103320000A4802F027FC00220421094802F022FC8E
:10333000FB881846FFF710FF01220421044802F021
:1033400019FC00BF0837BD4680BD00BF000C02401D
:103350000008024080B582B000AF0346FB71002236
:103360004FF400510A4802F005FC002204210948EC
:1033700002F000FCFB799BB21846FFF7EDFE01223C
:103380000421044802F0F6FB00BF0837BD4680BDAB
:10339000000C02400008024080B584B000AF034634
:1033A0000A46FB8013467B710023FB600022042148
:1033B000104802F0DFFB00224FF400510E4802F0EB
:1033C000D9FBFB881846FFF7C7FE7B791846FFF745
:1033D000A3FEF86001224FF40051074802F0CAFB37
:1033E00001220421034802F0C5FBFB681846103790
:1033F000BD4680BD00080240000C024080B582B08E
:1034000000AF7860786800F055FF00BF0837BD4610
:1034100080BD000080B500AF2D4B2E4A1A602C4BAA
:1034200009225A612A4B01229A61294B1D22DA6135
:10343000274B03221A62264B40F20D125A62244B8C
:1034400040F243129A62224B40F21712DA62204B8A
:1034500040F247121A631E4B002283F836201C4BA1
:10346000002283F834201A4B002283F835201A4BAF
:1034700008221A60184BC0221A61174B04229A6165
:10348000154B4FF400325A62134803F0F1FC104B15
:1034900000225A600E4B00229A600D4B0022DA6027
:1034A0000B4B00221A6100F0DBFA094802F03CFDE8
:1034B0000A4B0B4A1A60094B1B681B68984700F0BF
:1034C000BDFC084800F0BEF80023184680BD00BFD0
:1034D000100A002000680140F80A0020440B002078
:1034E000C40400200005002080B500AF034B1B681A
:1034F0009B6A98470346184680BD00BF440B0020D6
:1035000080B500AF034B1B68DB6A9847034618463B
:1035100080BD00BF440B002080B590B000AF0346D3
:103520003960FB800023FB60FFF7DEFF03463B6151
:1035300000237B61FFF7E4FF0346BB610023FB61CF
:103540003B683B63FF233B6200237B62002387F8D9
:103550003C30002387F83D30002387F83E304FF49D
:10356000C063BB620723FB62FFF7BEFF03467B63BA
:10357000FFF7C6FF0346BB63FA8807F10C03194641
:10358000144802F0A1FDFA88134913465B00134466
:103590009B000B4404334FF0FF321A60FA880E4947
:1035A00013465B0013449B000B4408330B4A1A601C
:1035B000FA88094913465B0013449B000B444FF003
:1035C0007F421A60034802F0BDFD00BF4037BD4690
:1035D00080BD00BF100A00202C0B00200005002039
:1035E00080B483B000AF7860074B1A680749134670
:1035F0005B0013449B000B447A681A6000BF0C37D1
:10360000BD465DF8047B7047280B00202C0B002082
:1036100080B483B000AF7860084B1A68084913463D
:103620005B0013449B000B4404337A681A6000BFAC
:103630000C37BD465DF8047B704700BF280B0020A7
:103640002C0B002080B483B000AF7860084B1A6860
:10365000084913465B0013449B000B4408337A6807
:103660001A6000BF0C37BD465DF8047B704700BF91
:10367000280B00202C0B002080B400AF074B1A68E9
:10368000074913465B0013449B000B4408331B6837
:103690001846BD465DF8047B704700BF280B00202C
:1036A0002C0B0020F0B585B002AF78600F4B1C6882
:1036B0000E4B1B680E4A342101FB03F313445C33A9
:1036C0001B681E46FFF710FF0546FFF719FF02466D
:1036D0007B6801930023009313462A463146204617
:1036E00000F074FB00BF0C37BD46F0BD280B002076
:1036F000100A002090B583B000AF0346FB800B4654
:10370000BB801346FB701B4B1A681B4913465B00BA
:1037100013449B000B4408331B681968FB78A3F122
:103720002000144B1A68144C13465B0013449B0092
:10373000234408331B68DB8803FB00F00D4B1A6839
:103740000D4C13465B0013449B00234408331B6855
:103750009B880733002B00DA0733DB1000FB03F3F1
:10376000CA18B988FB88184600F076FA00BF0C37F3
:10377000BD4690BD280B00202C0B0020B0B588B0B2
:1037800000AFBA601A460346FB810B46BB81134665
:10379000FB710123FB830023BB830023BB61002358
:1037A0003B61BB687B6102E0BB690133BB617B6944
:1037B0005A1C7A611B78002BF6D1FFF795FE014663
:1037C0004B4B1A684B4813465B0013449B00034461
:1037D00008331B689B88B1FBF3F33B61FB79032B38
:1037E0001CD0032B33DC012B02D0022B19D02EE08E
:1037F0003A69BB69D11A3E4B1A683E4813465B00D2
:1038000013449B00034408331B689B8801FB03F3AC
:103810005B089AB2FB891344FB831BE0FB89FB83A3
:1038200018E03A69BB69D31A99B2314B1A6831482A
:1038300013465B0013449B00034408331B689B88BA
:1038400011FB03F39AB2FB891344FB8302E0FB896B
:10385000FB8300BF1AE0BB681A78B989FB8B184656
:10386000FFF748FF224B1A68224913465B001344B6
:103870009B000B4408331B689A88FB8B1344FB8323
:10388000BB680133BB60BB8B0133BB83BB681B7858
:10389000002B14BF01230023DCB2FFF725FEB98BF8
:1038A000134B1A68134D13465B0013449B002B44C3
:1038B00008331B689B8801FB03F3C31A99B20C4BB6
:1038C0001A680C4813465B0013449B0003440833FA
:1038D0001B689B8899422CBF01230023DBB2234045
:1038E000DBB2002BB7D100BF00BF2037BD46B0BD53
:1038F000280B00202C0B002080B582B000AF0346BF
:103900003960FB80FFF7B8FE0346DB88FA8812FBBC
:1039100003F399B203233A680020FFF72FFF00BF9B
:103920000837BD4680BD0000F0B587B002AF034642
:10393000FB800B46BB8013467B800023FB60184B4B
:103940001B68184A342101FB03F313445C331C68E1
:10395000FFF7CAFD0246BB8803FB02F2FB88134453
:103960009B002344FB600E4B1C68FD687E88FFF7BC
:10397000BBFD0346591E0A4B1A680B4813465B00F1
:1039800013449B0003441B680193009133460122BA
:103990002946204600F01AFA00BF1437BD46F0BD94
:1039A000280B0020100A00202C0B00202DE9F041EC
:1039B00086B002AF0446084611461A462346FB80ED
:1039C0000346BB800B467B8013463B800023FB6095
:1039D000204B1A68204913465B0013449B000B449C
:1039E0001B681846FFF7FCFD1A4B1B681B4A342165
:1039F00001FB03F313445C331C68FFF775FD0246BB
:103A0000BB8803FB02F2FB8813449B002344FB604A
:103A1000104B1C68FD687E88B7F80080FFF764FDD6
:103A200002467B88D11A0B4B1A680B4813465B0081
:103A300013449B0003441B680193009143463246A4
:103A40002946204600F0C2F900BF1037BD46BDE848
:103A5000F08100BF280B00202C0B0020100A002052
:103A600080B58EB000AF00233B62614B5B6C604A57
:103A700043F0806353645E4B5B6C03F080633B6296
:103A80003B6A0023FB615A4B1B6B594A43F400030A
:103A90001363574B1B6B03F40003FB61FB690023AB
:103AA000BB61534B1B6B524A43F001031363504BF2
:103AB0001B6B03F00103BB61BB6900237B614C4BB3
:103AC0001B6B4B4A43F002031363494B1B6B03F020
:103AD00002037B617B6900233B61454B1B6B444ABE
:103AE00043F004031363424B1B6B03F004033B617D
:103AF0003B690023FB603E4B1B6B3D4A43F00803D0
:103B000013633B4B1B6B03F00803FB60FB68002354
:103B1000BB60374B1B6B364A43F020031363344BB7
:103B20001B6B03F02003BB60BB6800237B60304B42
:103B30001B6B2F4A43F0400313632D4B1B6B03F0A9
:103B400040037B607B6841F658037B620223BB62C3
:103B50000023FB6202233B630E237B6307F12403F4
:103B60001946244801F036FD4FF470637B6207F17B
:103B700024031946204801F02DFD4FF498637B6221
:103B800007F1240319461D4801F024FD48237B62F8
:103B900007F1240319461A4801F01CFD4FF4806315
:103BA0007B6207F124031946164801F013FD4FF418
:103BB0000C637B6207F124031946134801F00AFDE8
:103BC00003237B6209237B6307F1240319460A4818
:103BD00001F000FD4FF4A0537B6207F12403194666
:103BE000094801F0F7FC00BF3837BD4680BD00BF73
:103BF0000038024000000240000402400008024079
:103C0000000C02400014024000180240B0B582B01F
:103C100000AF03463A60FB800B46BB800C4B1B6831
:103C20000C4A342101FB03F313445C331C68BD8848
:103C3000FFF75AFC034603FB05F2FB8813449B0085
:103C400023441A463B68136000BF0837BD46B0BD29
:103C5000280B0020100A002080B588B000AF034672
:103C60003A60FB800B46BB800023FB610023BB61F5
:103C700000237B61534B1A68534913465B0013447E
:103C80009B000B4408331B68DB887B824D4B1A6812
:103C90004D4913465B0013449B000B4408331B68DB
:103CA0009B883B823B8A0733002B00DA0733DB100B
:103CB000DBB2DB00DAB23B8ADBB2D31AFB73002340
:103CC000FB6176E03B8A0733002B00DA0733DB1019
:103CD0001A46FB6902FB03F33A681344BB603B8A54
:103CE0000733002B00DA0733DB10012B02D0022B45
:103CF00004D00CE0BB681B787B6116E0BB681B78C6
:103D00001B02BA680132127813437B610DE0BB6875
:103D10001B781A04BB6801331B781B021343BA6873
:103D20000232127813437B6100BF0023BB6136E08F
:103D30003A8ABB69D21AFB7B1344013B012202FA87
:103D400003F31A467B691340002B12D0BB699AB269
:103D5000FB88134498B21B4B1A681B4913465B003F
:103D600013449B000B441A68BB881946FFF74EFFAB
:103D700012E0BB699AB2FB88134498B2114B1A68DF
:103D8000114913465B0013449B000B4404331A682B
:103D9000BB881946FFF73AFFBB690133BB613B8A19
:103DA000BA699A42C4D3BB880133BB80FB69013333
:103DB000FB617B8AFA699A4284D300BF00BF203737
:103DC000BD4680BD280B00202C0B002080B586B09E
:103DD00002AFF860B9607A603B60164B4FF4403236
:103DE0005A60144B00229A60124ABB69D360114B8F
:103DF000114A1A600F4801F061F90346002B15D1F2
:103E0000F9680C4801F0B8FA0346002B0ED1BA68E5
:103E10003B6800937B68F969064801F098F903460E
:103E2000002B03D10A21034801F0BCF900BF103771
:103E3000BD4680BDB80A002000B0024080B500AF8A
:103E4000294B2A4A1A602A4B02221A60284B072261
:103E50005A60274B04229A60254B0722DA60244BD4
:103E600002221A61224B02225A61214B02229A61DC
:103E70001D4B01225A601C4B00229A601A4B0422EF
:103E8000DA60194B10221A61174B40225A61164B07
:103E90004FF4C0729A61144B0022DA61124B4FF456
:103EA00000621A62104B00225A620F4B4FF400520C
:103EB0009A6200210C4800F07FF80D490A4803F08F
:103EC00011FB0346002B03D00A4B01221A7002E0BB
:103ED000084B00221A7040F26A5000F00DF8054BB2
:103EE0001B78184680BD00BF480B0020400100A091
:103EF0007C0B00201005002080B584B000AF7860F6
:103F00000023FB602A4B01221A60294B08225A60C9
:103F1000274B01229A60264B0022DA604FF6FF728F
:103F20002349244803F012FB012000F0C3F9204B81
:103F300002221A601E4B08225A601D4B01229A6011
:103F40001B4B0022DA604FF6FF721949194803F043
:103F5000FDFA174B03221A60154B08225A60144BC6
:103F600004229A60124B0022DA604FF6FF72104969
:103F7000104803F0EBFA4FF40C73FB600C4B042277
:103F80001A600B4B08225A60094B01229A60FB68A9
:103F9000074AD3604FF6FF720549064803F0D6FA88
:103FA0007968044803F007FB00BF1037BD4680BDA9
:103FB000980B0020480B002080B590B000AF7860CF
:103FC00039607B68002B00F0EC800023BB62774BEC
:103FD0009B6B764A43F001039363744B9B6B03F036
:103FE0000103BB62BB6A00237B62704B1B6B6F4A91
:103FF00043F4800313636D4B1B6B03F480037B62FC
:104000007B6A00233B62694B1B6B684A43F00203E7
:104010001363664B1B6B03F002033B623B6A002396
:10402000FB61624B1B6B614A43F0040313635F4BFC
:104030001B6B03F00403FB61FB690023BB615B4B5B
:104040001B6B5A4A43F008031363584B1B6B03F076
:104050000803BB61BB6900237B61544B1B6B534A54
:1040600043F010031363514B1B6B03F010037B6190
:104070007B6900233B614D4B1B6B4C4A43F0200393
:1040800013634A4B1B6B03F020033B613B69002326
:10409000FB60464B1B6B454A43F040031363434BA5
:1040A0001B6B03F04003FB60FB6802233B630223AE
:1040B000BB6300237B630C23FB636023FB6207F17C
:1040C0002C0319463A4801F085FA0123FB6207F1F7
:1040D0002C031946374801F07DFA4CF20373FB625A
:1040E00007F12C031946344801F074FA4FF6837334
:1040F000FB6207F12C031946304801F06BFA4FF6CA
:104100003F03FB6207F12C0319462D4801F062FAC8
:1041100048F23313FB6207F12C031946294801F0DA
:1041200059FA294B00225A60274B80229A60264B6D
:104130004FF40072DA60244B4FF480621A61224B14
:104140004FF480525A61204B4FF480429A611E4BCB
:104150000022DA611C4B4FF400321A621A4B002223
:104160005A62194B03229A62174B0022DA62164BED
:1041700000221A63144B154A1A607B68124A1A63AC
:10418000114A7B689363104800F088FE0E4800F0E7
:10419000D7FD00220F21382000F09BFD382000F0D1
:1041A000B4FD00BF4037BD4680BD00BF00380240AF
:1041B0000004024000080240000C024000100240CF
:1041C0000014024000180240A80B002010640240B6
:1041D00080B500AF0E4B1B680D4A43F400731360AB
:1041E0000B4B1B680A4A43F480631360084B1B683F
:1041F000074A43F480731360032000F05FFD0F2033
:1042000000F008F8FEF716F80023184680BD00BF3E
:10421000003C024080B582B000AF7860124B1A6853
:10422000124B1B7819464FF47A73B3FBF1F3B2FBD0
:10423000F3F3184600F077FD0346002B01D001236D
:104240000EE07B680F2B0AD8002279684FF0FF3010
:1042500000F03FFD064A7B681360002300E0012365
:1042600018460837BD4680BDC00400201805002050
:104270001405002080B400AF064B1B781A46064B8D
:104280001B681344044A136000BFBD465DF8047BFD
:10429000704700BF18050020080C002080B400AF54
:1042A000034B1B681846BD465DF8047B704700BF92
:1042B000080C002080B584B000AF7860FFF7EEFFF7
:1042C000B8607B68FB60FB68B3F1FF3F05D00A4B29
:1042D0001B781A46FB681344FB6000BFFFF7DEFF44
:1042E0000246BB68D31AFA689A42F7D800BF00BFEB
:1042F0001037BD4680BD00BF1805002080B584B0D2
:1043000000AF78600023FB737B68002B01D1012391
:1043100033E07B681B6C002B09D17868FDF7B2FF96
:104320007B6800225A647B68002283F83C207B680B
:104330001B6C03F01003002B18D17B681B6C23F45B
:10434000885323F0020343F002027B681A64786802
:1043500000F0E8FA7B6800225A647B681B6C23F04B
:10436000030343F001027B681A6401E00123FB733D
:104370007B68002283F83C20FB7B18461037BD4643
:1043800080BD000080B485B000AF78600023BB60C2
:104390007B6893F83C30012B01D10223B2E07B68AB
:1043A000012283F83C207B681B689B6803F00103B3
:1043B000012B18D07B681B689A687B681B6842F0E9
:1043C00001029A60524B1B68524AA2FB03239A0CCB
:1043D00013465B001344BB6002E0BB68013BBB605B
:1043E000BB68002BF9D17B681B689B6803F0010355
:1043F000012B7AD17B681B6C23F4E06323F001036B
:1044000043F480727B681A647B681B685B6803F402
:104410008063002B07D07B681B6C23F4405343F46C
:1044200080527B681A647B681B6C03F48053B3F57D
:10443000805F06D17B685B6C23F006027B685A6460
:1044400002E07B6800225A647B68002283F83C20EB
:10445000314BFB607B681B686FF022021A60FB68BF
:104460005B6803F01F03002B2AD17B681B682B4A73
:10447000934215D07B681B68294A934205D1264B8D
:104480005B6803F01F03002B0AD07B681B68254A7A
:10449000934236D1204B5B6803F01003002B30D1E0
:1044A0007B681B689B6803F04053002B29D17B6815
:1044B0001B689A687B681B6842F080429A6020E023
:1044C0007B681B68154A93421BD17B681B689B68FD
:1044D00003F04053002B14D17B681B689A687B68FB
:1044E0001B6842F080429A600BE07B681B6C43F0D3
:1044F00010027B681A647B685B6C43F001027B6886
:104500005A64002318461437BD465DF8047B704793
:10451000C004002083DE1B43002301400020014033
:10452000002101400022014080B483B000AF7860D8
:104530007B6893F83C30012B01D1022321E07B689A
:10454000012283F83C207B681B689A687B681B68A3
:1045500022F001029A607B681B689B6803F00103EC
:10456000002B09D17B681B6C23F4885323F00103D3
:1045700043F001027B681A647B68002283F83C20C8
:10458000002318460C37BD465DF8047B704780B5A4
:1045900084B000AF786039600023FB607B681B68E3
:1045A0009B6803F48063B3F5806F13D17B681B684D
:1045B0009B6803F48073B3F5807F0BD17B681B6C21
:1045C00043F020027B681A647B68002283F83C2059
:1045D000012363E0FFF762FEF86021E03B68B3F17E
:1045E000FF3F1DD03B68002B07D0FFF757FE024668
:1045F000FB68D31A3A689A4212D27B681B681B6820
:1046000003F00203022B0BD07B681B6C43F0040207
:104610007B681A647B68002283F83C2003233DE01A
:104620007B681B681B6803F00203022BD6D17B68F2
:104630001B686FF012021A607B681B6C43F40072F7
:104640007B681A647B681B689B6803F04053002BEF
:1046500023D17B681B7E002B1FD17B681B68DB6A24
:1046600003F47003002B06D07B681B689B6803F47F
:104670008063002B11D17B681B6C23F480727B68F4
:104680001A647B681B6C03F48053002B05D17B6894
:104690001B6C43F001027B681A6400231846103734
:1046A000BD4680BD80B483B000AF78607B681B6876
:1046B000DB6C18460C37BD465DF8047B7047000084
:1046C00080B485B000AF786039600023BB607B6840
:1046D00093F83C30012B01D1022313E17B680122C6
:1046E00083F83C203B681B68092B25D97B681B6835
:1046F000D9683B681B689BB21A4613465B0013449B
:104700001E3B072202FA03F3DA437B681B680A4068
:10471000DA607B681B68D9683B689A683B681B68ED
:104720009BB2184603465B0003441E3B9A407B68DD
:104730001B680A43DA6022E07B681B6819693B68E2
:104740001B689BB21A4613465B001344072202FA09
:1047500003F3DA437B681B680A401A617B681B68B5
:1047600019693B689A683B681B689BB21846034608
:104770005B0003449A407B681B680A431A613B68EC
:104780005B68062B24D87B681B68596B3B685A68AA
:1047900013469B001344053B1F2202FA03F3DA433E
:1047A0007B681B680A405A637B681B68596B3B68CF
:1047B0001B689BB218463B685A6813469B0013441B
:1047C000053B00FA03F27B681B680A435A634CE01E
:1047D0003B685B680C2B24D87B681B68196B3B68B3
:1047E0005A6813469B001344233B1F2202FA03F32B
:1047F000DA437B681B680A401A637B681B68196B85
:104800003B681B689BB218463B685A6813469B007E
:104810001344233B00FA03F27B681B680A431A63C4
:1048200023E07B681B68D96A3B685A6813469B0083
:104830001344413B1F2202FA03F3DA437B681B68EF
:104840000A40DA627B681B68D96A3B681B689BB2C6
:1048500018463B685A6813469B001344413B00FAD4
:1048600003F27B681B680A43DA62294BFB607B68B2
:104870001B68284A93420FD13B681B68122B0BD14F
:10488000FB685B6823F40002FB685A60FB685B68A6
:1048900043F48002FB685A607B681B681D4A9342A0
:1048A0002BD13B681B681C4A934203D03B681B68B2
:1048B000112B22D1FB685B6823F48002FB685A60ED
:1048C000FB685B6843F40002FB685A603B681B6846
:1048D000114A934211D1114B1B68114AA2FB0323C9
:1048E0009A0C13469B0013445B00BB6002E0BB685C
:1048F000013BBB60BB68002BF9D17B68002283F8C9
:104900003C20002318461437BD465DF8047B7047F1
:10491000002301400020014012000010C0040020CC
:1049200083DE1B4380B485B000AF7860794BFB60B9
:10493000FB685B6823F44032FB685A60FB685A6886
:104940007B685B681A43FB685A607B681B685A681F
:104950007B681B6822F480725A607B681B68596808
:104960007B681B691A027B681B680A435A607B6874
:104970001B685A687B681B6822F040725A607B682B
:104980001B6859687B689A687B681B680A435A6091
:104990007B681B689A687B681B6822F400629A60D7
:1049A0007B681B6899687B68DA687B681B680A43C8
:1049B0009A607B689B6A584A934222D07B681B6846
:1049C0009A687B681B6822F070629A607B681B683B
:1049D00099687B689A6A7B681B680A439A607B685F
:1049E0001B689A687B681B6822F040529A607B685B
:1049F0001B6899687B68DA6A7B681B680A439A605F
:104A00000FE07B681B689A687B681B6822F0706205
:104A10009A607B681B689A687B681B6822F040522A
:104A20009A607B681B689A687B681B6822F00202A8
:104A30009A607B681B6899687B681B7E5A007B685C
:104A40001B680A439A607B6893F82030002B1BD0C8
:104A50007B681B685A687B681B6842F400625A6076
:104A60007B681B685A687B681B6822F460425A6046
:104A70007B681B6859687B685B6A013B5A037B68EB
:104A80001B680A435A6007E07B681B685A687B68AA
:104A90001B6822F400625A607B681B68DA6A7B68D4
:104AA0001B6822F47002DA627B681B68D96A7B6833
:104AB000DB69013B1A057B681B680A43DA627B6885
:104AC0001B689A687B681B6822F400729A607B6896
:104AD0001B6899687B6893F830305A027B681B68C2
:104AE0000A439A607B681B689A687B681B6822F49B
:104AF00080629A607B681B6899687B685B699A0230
:104B00007B681B680A439A6000BF1437BD465DF896
:104B1000047B7047002301400100000F80B485B082
:104B200000AF78607B6803F00703FB600C4BDB6829
:104B3000BB60BA684FF6FF031340BB60FB681A0204
:104B4000BB68134343F0BF6343F40033BB60044AC4
:104B5000BB68D36000BF1437BD465DF8047B704767
:104B600000ED00E080B400AF044BDB681B0A03F0EB
:104B700007031846BD465DF8047B704700ED00E072
:104B800080B483B000AF0346FB7197F90730002B68
:104B90000BDBFB7903F01F02074997F907305B092C
:104BA000012000FA02F241F8232000BF0C37BD4675
:104BB0005DF8047B704700BF00E100E080B483B083
:104BC00000AF03463960FB7197F90730002B0ADB11
:104BD0003B68DAB20C4997F907301201D2B20B44A4
:104BE00083F800230AE03B68DAB20849FB7903F056
:104BF0000F03043B1201D2B20B441A7600BF0C37EC
:104C0000BD465DF8047B704700E100E000ED00E088
:104C100080B489B000AFF860B9607A60FB6803F0D7
:104C20000703FB61FB69C3F10703042B28BF0423BF
:104C3000BB61FB690433062B02D9FB69033B00E02F
:104C400000237B614FF0FF32BB6902FA03F3DA43C2
:104C5000BB681A407B699A404FF0FF317B6901FACB
:104C600003F3D9437B680B40134318462437BD46F2
:104C70005DF8047B7047000080B582B000AF7860BB
:104C80007B68013BB3F1807F01D301230FE00A4A27
:104C90007B68013B53600F214FF0FF30FFF78EFF21
:104CA000054B00229A60044B07221A600023184625
:104CB0000837BD4680BD00BF10E000E080B582B07F
:104CC00000AF78607868FFF729FF00BF0837BD465E
:104CD00080BD80B586B000AF0346B9607A60FB73D3
:104CE00000237B61FFF73EFF78617A68B9687869D5
:104CF000FFF78EFF024697F90F3011461846FFF76F
:104D00005DFF00BF1837BD4680BD80B582B000AFE3
:104D10000346FB7197F907301846FFF731FF00BFD4
:104D20000837BD4680BD80B582B000AF7860786836
:104D3000FFF7A2FF034618460837BD4680BD0000B6
:104D400080B586B000AF786000237B61FFF7A6FADC
:104D500038617B68002B01D1012399E07B68022236
:104D600083F835207B68002283F834207B681B6839
:104D70001A687B681B6822F001021A600FE0FFF7D7
:104D80008DFA02463B69D31A052B08D97B6820228D
:104D90005A657B68032283F83520032378E07B681B
:104DA0001B681B6803F00103002BE8D17B681B68BC
:104DB0001B687B617A69384B13407B617B685A685A
:104DC0007B689B681A437B68DB681A437B681B69B6
:104DD0001A437B685B691A437B689B691A437B684B
:104DE000DB691A437B681B6A13437A6913437B614F
:104DF0007B685B6A042B07D17B68DA6A7B681B6B74
:104E000013437A6913437B617B681B687A691A6074
:104E10007B681B685B697B617B6923F007037B61AF
:104E20007B685B6A7A6913437B617B685B6A042BEE
:104E300017D17B689B6A7A6913437B617B68DB6A65
:104E4000002B0ED0786800F0BDF80346002B08D088
:104E50007B6840225A657B68012283F83520012354
:104E600016E07B681B687A695A61786800F074F80C
:104E70000346FB607B68DB6D3F229A40FB689A60CB
:104E80007B6800225A657B68012283F83520002365
:104E900018461837BD4680BD3F8010F080B584B0FD
:104EA00000AF78607B68002B01D1012350E07B6864
:104EB00093F83530DBB2022B01D1022348E07B6846
:104EC0001B681A687B681B6822F001021A607B6805
:104ED0001B6800221A607B681B6800225A607B688E
:104EE0001B6800229A607B681B680022DA607B687E
:104EF0001B6800221A617B681B6821225A6178684E
:104F000000F02AF80346FB607B680022DA637B68C6
:104F100000221A647B6800225A647B6800229A642B
:104F20007B680022DA647B6800221A657B68DB6D8F
:104F30003F229A40FB689A607B6800225A657B6832
:104F4000002283F835207B68002283F83420002378
:104F500018461037BD4680BD80B485B000AF78607C
:104F60007B681B68DBB2103B144AA2FB03231B09BE
:104F7000FB60134AFB6813441B781A467B68DA65AA
:104F8000FB68032B09D97B681B6823F47F7323F02C
:104F900003031A1D7B689A6507E07B681B6823F48E
:104FA0007F7323F003037A6893657B689B6D1846D3
:104FB0001437BD465DF8047B704700BFABAAAAAAB0
:104FC0001CCC000880B485B000AF78600023FB7370
:104FD0007B689B6ABB607B689B69002B1FD1BB68A9
:104FE000032B56D801A252F823F000BFFD4F000852
:104FF0000F500008FD4F0008935000087B68DB6AE3
:1050000003F08073002B46D00123FB7343E07B68E1
:10501000DB6AB3F1C07F40D10123FB733DE07B68C5
:105020009B69B3F5005F21D1BB68032B37D801A280
:1050300052F823F0455000084B5000084550000836
:105040005D5000080123FB7330E07B68DB6A03F0EE
:105050008073002B25D00123FB7322E07B68DB6A81
:10506000B3F1C07F1FD10123FB731CE0BB68022B8F
:1050700003D9BB68032B03D018E00123FB7315E0B1
:105080007B68DB6A03F08073002B0ED00123FB7377
:105090000BE000BF0AE000BF08E000BF06E000BF71
:1050A00004E000BF02E000BF00E000BFFB7B184649
:1050B0001437BD465DF8047B704700BF80B582B0F1
:1050C00000AF78607B68002B01D101233BE07B6857
:1050D00093F83930DBB2002B06D17B68002283F8CD
:1050E00038207868FDF742F97B68022283F839207E
:1050F0007B681B681B6823F440317B685A687B68B7
:105100001B680A431A607B681B685B6B23F007010E
:105110007B689A687B681B680A435A637B681B68D4
:105120001B6C23F47F5323F03F037A68D1687A68BD
:1051300012680B4313647B680022DA637B680122E8
:1051400083F83920002318460837BD4680BD80B556
:1051500086B002AFF860B9607A603B60FB6893F894
:105160003830012B01D1022318E0FB68012283F8BB
:105170003820FB68022283F83920BB6900933B6822
:105180007A68B968F86800F089F9FB681B681A68E2
:10519000FB681B6842F001021A60002318461037B2
:1051A000BD4680BD80B586B000AF78603960002311
:1051B000FB607B681B681B6803F00103002B56D063
:1051C000FFF76CF878614BE07B681B685B68FB60FD
:1051D000FB6803F02103002B23D0FB6803F02003BE
:1051E000002B05D07B68DB6B43F002027B68DA633F
:1051F000FB6803F00103002B05D07B68DB6B43F0F9
:1052000001027B68DA637B681B6821229A607B68F5
:10521000042283F839207B68002283F83820012398
:10522000A5E03B68B3F1FF3F1AD0FFF737F802461D
:105230007B69D31A3A689A4202D33B68002B0FD19C
:105240007B68DB6B43F020027B68DA637B680322B8
:1052500083F839207B68002283F83820032386E016
:105260007B681B685B6803F00203002BACD07B6893
:105270001B68DB6903F020033B617B681B685B6A8A
:1052800003F020033A6913433B613B69002B61D073
:10529000FFF704F8786156E07B681B685B68FB6089
:1052A000FB6803F02903002B2ED0FB6803F00803F2
:1052B000002B05D07B68DB6B43F004027B68DA636C
:1052C000FB6803F02003002B05D07B68DB6B43F009
:1052D00002027B68DA63FB6803F00103002B05D050
:1052E0007B68DB6B43F001027B68DA637B681B68D9
:1052F00029229A607B68042283F839207B68002287
:1053000083F83820012332E03B68B3F1FF3F1AD025
:10531000FEF7C4FF02467B69D31A3A689A4202D369
:105320003B68002B0FD17B68DB6B43F020027B686E
:10533000DA637B68032283F839207B68002283F8D4
:105340003820032313E07B681B685B6803F01003BD
:10535000002BA1D07B681B6812229A607B68012217
:1053600083F839207B68002283F838200023184610
:105370001837BD4680BD000080B487B000AF7860AC
:1053800039607B685B68B3F5403F7B6893F83830E1
:10539000012B01D1022379E07B68012283F83820B8
:1053A0007B68022283F839203B681B0118337A6836
:1053B00013443B613B695A683B699B681B04134378
:1053C0007B61354BFB603B695B680A2B03D03B6913
:1053D0005B68092B07D13B69DB6803F07F437A697F
:1053E00013437B6105E03B69DB681B067A69134365
:1053F0007B613B68002B20D17B681B685A6AFB6885
:10540000DB4302EA03017B681B687A690A435A623C
:105410007B681B683A6912689A613B695B680A2B72
:1054200003D03B695B68092B27D13B69DA687B684D
:105430001B6822F07F429A621FE07B681B68DA6972
:10544000FB68DB4302EA03017B681B687A690A4355
:10545000DA617B681B683A6912681A613B695B68AC
:105460000A2B03D03B695B68092B06D13B69DA68DC
:105470007B681B6822F07F421A627B68012283F8F6
:1054800039207B68002283F83820002318461C3717
:10549000BD465DF8047B70470F0003FF80B48BB0FE
:1054A00000AFF860B9607A603B60FB681B685B6CBA
:1054B00003F040413B681A043B6B1A43FB681B68CE
:1054C0000A435A64FB681B687A68DA63FB685B68A6
:1054D000B3F5403F74D1BB6803F07F433B62BB68C8
:1054E00003F47F03FB61BB6803F47F43BB61BB68CC
:1054F000DBB27B61FB689B68002B08D1BA69FB6952
:105500001A433B6A13437A6913437B6253E0FB6897
:105510009B68012B06D1BA69FB6913437A6913436F
:105520007B6248E0FB689B68022B11D1FB69DB0CB6
:10553000FB61BB699B0ABB617B69DB087B61BB6963
:105540005A01FB69DB0213437A6913437B6232E041
:10555000FB689B68032B17D13B6ADB0F3B62FB693F
:10556000DB0CFB61BB69DB0ABB617B69DB087B6130
:10557000BB695A01FB699B021A433B6ADB03134375
:105580007A6913437B6216E03B6A1B0F3B62FB693F
:105590001B0DFB61BB691B0BBB617B691B097B613D
:1055A000BB691A01FB691B021A433B6A1B031343C5
:1055B0007A6913437B62FB681B687A6A9A6303E02B
:1055C000FB681B68BA68DA6000BF2C37BD465DF81F
:1055D000047B704780B489B000AF786039600023E5
:1055E0007B6100233B610023BB610023FB6177E10A
:1055F0000122FB6902FA03F37B613B681B687A694D
:1056000013403B613A697B699A4240F066813B688E
:105610005B6803F00303012B05D03B685B6803F074
:105620000303022B30D17B689B68BB61FB695B0085
:10563000032202FA03F3DB43BA691340BB613B6800
:10564000DA68FB695B0002FA03F3BA691343BB61D2
:105650007B68BA699A607B685B68BB610122FB6901
:1056600002FA03F3DB43BA691340BB613B685B6832
:105670001B0903F00102FB6902FA03F3BA69134341
:10568000BB617B68BA695A603B685B6803F00303DF
:10569000032B17D07B68DB68BB61FB695B000322CF
:1056A00002FA03F3DB43BA691340BB613B689A68B3
:1056B000FB695B0002FA03F3BA691343BB617B68C1
:1056C000BA69DA603B685B6803F00303022B23D1FD
:1056D000FB69DA087B68083253F82230BB61FB694A
:1056E00003F007039B000F2202FA03F3DB43BA69BE
:1056F0001340BB613B681A69FB6903F007039B0019
:1057000002FA03F3BA691343BB61FB69DA087B68E9
:105710000832B96943F822107B681B68BB61FB69DA
:105720005B00032202FA03F3DB43BA691340BB6157
:105730003B685B6803F00302FB695B0002FA03F35A
:10574000BA691343BB617B68BA691A603B685B68DE
:1057500003F44033002B00F0C0800023FB60664B55
:105760005B6C654A43F480435364634B5B6C03F4A6
:105770008043FB60FB68614AFB699B08023352F877
:105780002330BB61FB6903F003039B000F2202FA85
:1057900003F3DB43BA691340BB617B68584A934209
:1057A00037D07B68574A934231D07B68564A934240
:1057B0002BD07B68554A934225D07B68544A93424C
:1057C0001FD07B68534A934219D07B68524A934258
:1057D00013D07B68514A93420DD07B68504A934264
:1057E00007D07B684F4A934201D1092312E00A2374
:1057F00010E008230EE007230CE006230AE005234F
:1058000008E0042306E0032304E0022302E001236E
:1058100000E00023FA6902F0030292009340BA69A3
:105820001343BB613549FB699B080233BA6941F8F0
:1058300023203D4B9B68BB613B69DB43BA69134046
:10584000BB613B685B6803F48013002B03D0BA692B
:105850003B691343BB61344ABB699360324BDB68DD
:10586000BB613B69DB43BA691340BB613B685B6862
:1058700003F40013002B03D0BA693B691343BB61E7
:10588000294ABB69D360284B5B68BB613B69DB433A
:10589000BA691340BB613B685B6803F40033002BBB
:1058A00003D0BA693B691343BB611F4ABB695360AC
:1058B0001D4B1B68BB613B69DB43BA691340BB618D
:1058C0003B685B6803F48033002B03D0BA693B6903
:1058D0001343BB61144ABB691360FB690133FB616D
:1058E000FB690F2B7FF684AE00BF00BF2437BD4697
:1058F0005DF8047B704700BF00380240003801406B
:10590000000002400004024000080240000C024077
:10591000001002400014024000180240001C024027
:105920000020024000240240003C014080B487B0C7
:1059300000AF7860396000233B610023FB600023E7
:10594000BB6000237B61D9E001227B6902FA03F38B
:105950003B613A683B691340FB60FA683B699A42D5
:1059600040F0C9806B4A7B699B08023352F82330B0
:10597000BB607B6903F003039B000F2202FA03F371
:10598000BA681340BB607B68634A934237D07B6838
:10599000624A934231D07B68614A93422BD07B6844
:1059A000604A934225D07B685F4A93421FD07B6850
:1059B0005E4A934219D07B685D4A934213D07B685C
:1059C0005C4A93420DD07B685B4A934207D07B6868
:1059D0005A4A934201D1092312E00A2310E0082316
:1059E0000EE007230CE006230AE0052308E0042369
:1059F00006E0032304E0022302E0012300E0002389
:105A00007A6902F0030292009340BA689A4232D156
:105A10004B4B1A68FB68DB43494913400B60484B0A
:105A20005A68FB68DB43464913404B60444BDA68D5
:105A3000FB68DB4342491340CB60414B9A68FB68EB
:105A4000DB433F4913408B607B6903F003039B00FA
:105A50000F2202FA03F3BB602E4A7B699B080233D4
:105A600052F82310BB68DA432A487B699B080A4036
:105A7000023340F823207B681A687B695B000321AE
:105A800001FA03F3DB431A407B681A607B69DA088A
:105A90007B68083253F822107B6903F007039B00F0
:105AA0000F2202FA03F3DB437A69D20819407B68BC
:105AB000083243F822107B68DA687B695B000321B7
:105AC00001FA03F3DB431A407B68DA607B685A68AB
:105AD00001217B6901FA03F3DB431A407B685A60BA
